{
  "_format": "hh-sol-artifact-1",
  "contractName": "NFTMarketPlace",
  "sourceName": "contracts/NFTMarketPlace.sol",
  "address": "0xC61cF3fc2e57a0262F6ec4F9975E52F8B4015c35",
  "abi": [
    {
      "inputs": [],
      "stateMutability": "nonpayable",
      "type": "constructor"
    },
    {
      "anonymous": false,
      "inputs": [
        {
          "indexed": true,
          "internalType": "address",
          "name": "owner",
          "type": "address"
        },
        {
          "indexed": true,
          "internalType": "address",
          "name": "approved",
          "type": "address"
        },
        {
          "indexed": true,
          "internalType": "uint256",
          "name": "tokenId",
          "type": "uint256"
        }
      ],
      "name": "Approval",
      "type": "event"
    },
    {
      "anonymous": false,
      "inputs": [
        {
          "indexed": true,
          "internalType": "address",
          "name": "owner",
          "type": "address"
        },
        {
          "indexed": true,
          "internalType": "address",
          "name": "operator",
          "type": "address"
        },
        {
          "indexed": false,
          "internalType": "bool",
          "name": "approved",
          "type": "bool"
        }
      ],
      "name": "ApprovalForAll",
      "type": "event"
    },
    {
      "anonymous": false,
      "inputs": [
        {
          "indexed": true,
          "internalType": "uint256",
          "name": "tokenId",
          "type": "uint256"
        },
        {
          "indexed": false,
          "internalType": "address",
          "name": "owner",
          "type": "address"
        },
        {
          "indexed": false,
          "internalType": "address",
          "name": "seller",
          "type": "address"
        },
        {
          "indexed": false,
          "internalType": "uint256",
          "name": "price",
          "type": "uint256"
        },
        {
          "indexed": false,
          "internalType": "bool",
          "name": "currentlyListed",
          "type": "bool"
        }
      ],
      "name": "ListedSuccess",
      "type": "event"
    },
    {
      "anonymous": false,
      "inputs": [
        {
          "indexed": true,
          "internalType": "address",
          "name": "from",
          "type": "address"
        },
        {
          "indexed": true,
          "internalType": "address",
          "name": "to",
          "type": "address"
        },
        {
          "indexed": true,
          "internalType": "uint256",
          "name": "tokenId",
          "type": "uint256"
        }
      ],
      "name": "Transfer",
      "type": "event"
    },
    {
      "inputs": [
        {
          "internalType": "address",
          "name": "to",
          "type": "address"
        },
        {
          "internalType": "uint256",
          "name": "tokenId",
          "type": "uint256"
        }
      ],
      "name": "approve",
      "outputs": [],
      "stateMutability": "nonpayable",
      "type": "function"
    },
    {
      "inputs": [
        {
          "internalType": "address",
          "name": "owner",
          "type": "address"
        }
      ],
      "name": "balanceOf",
      "outputs": [
        {
          "internalType": "uint256",
          "name": "",
          "type": "uint256"
        }
      ],
      "stateMutability": "view",
      "type": "function"
    },
    {
      "inputs": [
        {
          "internalType": "string",
          "name": "tokenUri",
          "type": "string"
        },
        {
          "internalType": "uint256",
          "name": "price",
          "type": "uint256"
        }
      ],
      "name": "createToken",
      "outputs": [
        {
          "internalType": "uint256",
          "name": "",
          "type": "uint256"
        }
      ],
      "stateMutability": "payable",
      "type": "function"
    },
    {
      "inputs": [
        {
          "internalType": "uint256",
          "name": "tokenId",
          "type": "uint256"
        }
      ],
      "name": "executeSale",
      "outputs": [],
      "stateMutability": "payable",
      "type": "function"
    },
    {
      "inputs": [],
      "name": "getAllNFTs",
      "outputs": [
        {
          "components": [
            {
              "internalType": "uint256",
              "name": "tokenId",
              "type": "uint256"
            },
            {
              "internalType": "address payable",
              "name": "owner",
              "type": "address"
            },
            {
              "internalType": "address payable",
              "name": "seller",
              "type": "address"
            },
            {
              "internalType": "uint256",
              "name": "price",
              "type": "uint256"
            },
            {
              "internalType": "bool",
              "name": "currentlyListed",
              "type": "bool"
            }
          ],
          "internalType": "struct NFTMarketPlace.ListedToken[]",
          "name": "",
          "type": "tuple[]"
        }
      ],
      "stateMutability": "view",
      "type": "function"
    },
    {
      "inputs": [
        {
          "internalType": "uint256",
          "name": "tokenId",
          "type": "uint256"
        }
      ],
      "name": "getApproved",
      "outputs": [
        {
          "internalType": "address",
          "name": "",
          "type": "address"
        }
      ],
      "stateMutability": "view",
      "type": "function"
    },
    {
      "inputs": [],
      "name": "getCurrentTokenId",
      "outputs": [
        {
          "internalType": "uint256",
          "name": "",
          "type": "uint256"
        }
      ],
      "stateMutability": "view",
      "type": "function"
    },
    {
      "inputs": [],
      "name": "getLatestListedToken",
      "outputs": [
        {
          "components": [
            {
              "internalType": "uint256",
              "name": "tokenId",
              "type": "uint256"
            },
            {
              "internalType": "address payable",
              "name": "owner",
              "type": "address"
            },
            {
              "internalType": "address payable",
              "name": "seller",
              "type": "address"
            },
            {
              "internalType": "uint256",
              "name": "price",
              "type": "uint256"
            },
            {
              "internalType": "bool",
              "name": "currentlyListed",
              "type": "bool"
            }
          ],
          "internalType": "struct NFTMarketPlace.ListedToken",
          "name": "",
          "type": "tuple"
        }
      ],
      "stateMutability": "view",
      "type": "function"
    },
    {
      "inputs": [],
      "name": "getListPrice",
      "outputs": [
        {
          "internalType": "uint256",
          "name": "",
          "type": "uint256"
        }
      ],
      "stateMutability": "view",
      "type": "function"
    },
    {
      "inputs": [
        {
          "internalType": "uint256",
          "name": "id",
          "type": "uint256"
        }
      ],
      "name": "getListedTokenById",
      "outputs": [
        {
          "components": [
            {
              "internalType": "uint256",
              "name": "tokenId",
              "type": "uint256"
            },
            {
              "internalType": "address payable",
              "name": "owner",
              "type": "address"
            },
            {
              "internalType": "address payable",
              "name": "seller",
              "type": "address"
            },
            {
              "internalType": "uint256",
              "name": "price",
              "type": "uint256"
            },
            {
              "internalType": "bool",
              "name": "currentlyListed",
              "type": "bool"
            }
          ],
          "internalType": "struct NFTMarketPlace.ListedToken",
          "name": "",
          "type": "tuple"
        }
      ],
      "stateMutability": "view",
      "type": "function"
    },
    {
      "inputs": [],
      "name": "getMyNFTs",
      "outputs": [
        {
          "components": [
            {
              "internalType": "uint256",
              "name": "tokenId",
              "type": "uint256"
            },
            {
              "internalType": "address payable",
              "name": "owner",
              "type": "address"
            },
            {
              "internalType": "address payable",
              "name": "seller",
              "type": "address"
            },
            {
              "internalType": "uint256",
              "name": "price",
              "type": "uint256"
            },
            {
              "internalType": "bool",
              "name": "currentlyListed",
              "type": "bool"
            }
          ],
          "internalType": "struct NFTMarketPlace.ListedToken[]",
          "name": "",
          "type": "tuple[]"
        }
      ],
      "stateMutability": "view",
      "type": "function"
    },
    {
      "inputs": [
        {
          "internalType": "address",
          "name": "owner",
          "type": "address"
        },
        {
          "internalType": "address",
          "name": "operator",
          "type": "address"
        }
      ],
      "name": "isApprovedForAll",
      "outputs": [
        {
          "internalType": "bool",
          "name": "",
          "type": "bool"
        }
      ],
      "stateMutability": "view",
      "type": "function"
    },
    {
      "inputs": [],
      "name": "name",
      "outputs": [
        {
          "internalType": "string",
          "name": "",
          "type": "string"
        }
      ],
      "stateMutability": "view",
      "type": "function"
    },
    {
      "inputs": [
        {
          "internalType": "uint256",
          "name": "tokenId",
          "type": "uint256"
        }
      ],
      "name": "ownerOf",
      "outputs": [
        {
          "internalType": "address",
          "name": "",
          "type": "address"
        }
      ],
      "stateMutability": "view",
      "type": "function"
    },
    {
      "inputs": [
        {
          "internalType": "address",
          "name": "from",
          "type": "address"
        },
        {
          "internalType": "address",
          "name": "to",
          "type": "address"
        },
        {
          "internalType": "uint256",
          "name": "tokenId",
          "type": "uint256"
        }
      ],
      "name": "safeTransferFrom",
      "outputs": [],
      "stateMutability": "nonpayable",
      "type": "function"
    },
    {
      "inputs": [
        {
          "internalType": "address",
          "name": "from",
          "type": "address"
        },
        {
          "internalType": "address",
          "name": "to",
          "type": "address"
        },
        {
          "internalType": "uint256",
          "name": "tokenId",
          "type": "uint256"
        },
        {
          "internalType": "bytes",
          "name": "data",
          "type": "bytes"
        }
      ],
      "name": "safeTransferFrom",
      "outputs": [],
      "stateMutability": "nonpayable",
      "type": "function"
    },
    {
      "inputs": [
        {
          "internalType": "address",
          "name": "operator",
          "type": "address"
        },
        {
          "internalType": "bool",
          "name": "approved",
          "type": "bool"
        }
      ],
      "name": "setApprovalForAll",
      "outputs": [],
      "stateMutability": "nonpayable",
      "type": "function"
    },
    {
      "inputs": [
        {
          "internalType": "bytes4",
          "name": "interfaceId",
          "type": "bytes4"
        }
      ],
      "name": "supportsInterface",
      "outputs": [
        {
          "internalType": "bool",
          "name": "",
          "type": "bool"
        }
      ],
      "stateMutability": "view",
      "type": "function"
    },
    {
      "inputs": [],
      "name": "symbol",
      "outputs": [
        {
          "internalType": "string",
          "name": "",
          "type": "string"
        }
      ],
      "stateMutability": "view",
      "type": "function"
    },
    {
      "inputs": [
        {
          "internalType": "uint256",
          "name": "tokenId",
          "type": "uint256"
        }
      ],
      "name": "tokenURI",
      "outputs": [
        {
          "internalType": "string",
          "name": "",
          "type": "string"
        }
      ],
      "stateMutability": "view",
      "type": "function"
    },
    {
      "inputs": [
        {
          "internalType": "address",
          "name": "from",
          "type": "address"
        },
        {
          "internalType": "address",
          "name": "to",
          "type": "address"
        },
        {
          "internalType": "uint256",
          "name": "tokenId",
          "type": "uint256"
        }
      ],
      "name": "transferFrom",
      "outputs": [],
      "stateMutability": "nonpayable",
      "type": "function"
    },
    {
      "inputs": [
        {
          "internalType": "uint256",
          "name": "_listPrice",
          "type": "uint256"
        }
      ],
      "name": "updateListPrice",
      "outputs": [],
      "stateMutability": "payable",
      "type": "function"
    }
  ],
  "bytecode": "0x6080604052662386f26fc10000600a553480156200001c57600080fd5b506040518060400160405280600e81526020017f4e46544d61726b6574506c6163650000000000000000000000000000000000008152506040518060400160405280600481526020017f4e46544d0000000000000000000000000000000000000000000000000000000081525081600090816200009a919062000370565b508060019081620000ac919062000370565b50505033600960006101000a81548173ffffffffffffffffffffffffffffffffffffffff021916908373ffffffffffffffffffffffffffffffffffffffff16021790555062000457565b600081519050919050565b7f4e487b7100000000000000000000000000000000000000000000000000000000600052604160045260246000fd5b7f4e487b7100000000000000000000000000000000000000000000000000000000600052602260045260246000fd5b600060028204905060018216806200017857607f821691505b6020821081036200018e576200018d62000130565b5b50919050565b60008190508160005260206000209050919050565b60006020601f8301049050919050565b600082821b905092915050565b600060088302620001f87fffffffffffffffffffffffffffffffffffffffffffffffffffffffffffffffff82620001b9565b620002048683620001b9565b95508019841693508086168417925050509392505050565b6000819050919050565b6000819050919050565b6000620002516200024b62000245846200021c565b62000226565b6200021c565b9050919050565b6000819050919050565b6200026d8362000230565b620002856200027c8262000258565b848454620001c6565b825550505050565b600090565b6200029c6200028d565b620002a981848462000262565b505050565b5b81811015620002d157620002c560008262000292565b600181019050620002af565b5050565b601f8211156200032057620002ea8162000194565b620002f584620001a9565b8101602085101562000305578190505b6200031d6200031485620001a9565b830182620002ae565b50505b505050565b600082821c905092915050565b6000620003456000198460080262000325565b1980831691505092915050565b600062000360838362000332565b9150826002028217905092915050565b6200037b82620000f6565b67ffffffffffffffff81111562000397576200039662000101565b5b620003a382546200015f565b620003b0828285620002d5565b600060209050601f831160018114620003e85760008415620003d3578287015190505b620003df858262000352565b8655506200044f565b601f198416620003f88662000194565b60005b828110156200042257848901518255600182019150602085019450602081019050620003fb565b868310156200044257848901516200043e601f89168262000332565b8355505b6001600288020188555050505b505050505050565b613e9f80620004676000396000f3fe6080604052600436106101355760003560e01c806370a08231116100ab578063b88d4fde1161006f578063b88d4fde14610420578063c322579c14610449578063c87b56dd14610465578063e0391b09146104a2578063e985e9c5146104cd578063eda187dd1461050a57610135565b806370a082311461034357806372b3b6201461038057806395d89b41146103b05780639b1225c4146103db578063a22cb465146103f757610135565b806323b872dd116100fd57806323b872dd1461023357806342842e0e1461025c5780635618923614610285578063629cb2e4146102b05780636352211e146102db57806368f1945f1461031857610135565b806301d7ccbc1461013a57806301ffc9a71461016557806306fdde03146101a2578063081812fc146101cd578063095ea7b31461020a575b600080fd5b34801561014657600080fd5b5061014f610547565b60405161015c919061297b565b60405180910390f35b34801561017157600080fd5b5061018c60048036038101906101879190612a02565b61065c565b6040516101999190612a3e565b60405180910390f35b3480156101ae57600080fd5b506101b761073e565b6040516101c49190612ae9565b60405180910390f35b3480156101d957600080fd5b506101f460048036038101906101ef9190612b37565b6107d0565b6040516102019190612b85565b60405180910390f35b34801561021657600080fd5b50610231600480360381019061022c9190612bcc565b610816565b005b34801561023f57600080fd5b5061025a60048036038101906102559190612c0c565b61092d565b005b34801561026857600080fd5b50610283600480360381019061027e9190612c0c565b61098d565b005b34801561029157600080fd5b5061029a6109ad565b6040516102a79190612c6e565b60405180910390f35b3480156102bc57600080fd5b506102c56109be565b6040516102d29190612da0565b60405180910390f35b3480156102e757600080fd5b5061030260048036038101906102fd9190612b37565b610c89565b60405161030f9190612b85565b60405180910390f35b34801561032457600080fd5b5061032d610d0f565b60405161033a9190612c6e565b60405180910390f35b34801561034f57600080fd5b5061036a60048036038101906103659190612dc2565b610d19565b6040516103779190612c6e565b60405180910390f35b61039a60048036038101906103959190612f24565b610dd0565b6040516103a79190612c6e565b60405180910390f35b3480156103bc57600080fd5b506103c5610e12565b6040516103d29190612ae9565b60405180910390f35b6103f560048036038101906103f09190612b37565b610ea4565b005b34801561040357600080fd5b5061041e60048036038101906104199190612fac565b6110eb565b005b34801561042c57600080fd5b506104476004803603810190610442919061308d565b611101565b005b610463600480360381019061045e9190612b37565b611163565b005b34801561047157600080fd5b5061048c60048036038101906104879190612b37565b6111fd565b6040516104999190612ae9565b60405180910390f35b3480156104ae57600080fd5b506104b761130f565b6040516104c49190612da0565b60405180910390f35b3480156104d957600080fd5b506104f460048036038101906104ef9190613110565b61161e565b6040516105019190612a3e565b60405180910390f35b34801561051657600080fd5b50610531600480360381019061052c9190612b37565b6116b2565b60405161053e919061297b565b60405180910390f35b61054f612841565b600061055b60076117ba565b9050600b60008281526020019081526020016000206040518060a0016040529081600082015481526020016001820160009054906101000a900473ffffffffffffffffffffffffffffffffffffffff1673ffffffffffffffffffffffffffffffffffffffff1673ffffffffffffffffffffffffffffffffffffffff1681526020016002820160009054906101000a900473ffffffffffffffffffffffffffffffffffffffff1673ffffffffffffffffffffffffffffffffffffffff1673ffffffffffffffffffffffffffffffffffffffff168152602001600382015481526020016004820160009054906101000a900460ff16151515158152505091505090565b60007f80ac58cd000000000000000000000000000000000000000000000000000000007bffffffffffffffffffffffffffffffffffffffffffffffffffffffff1916827bffffffffffffffffffffffffffffffffffffffffffffffffffffffff1916148061072757507f5b5e139f000000000000000000000000000000000000000000000000000000007bffffffffffffffffffffffffffffffffffffffffffffffffffffffff1916827bffffffffffffffffffffffffffffffffffffffffffffffffffffffff1916145b806107375750610736826117c8565b5b9050919050565b60606000805461074d9061317f565b80601f01602080910402602001604051908101604052809291908181526020018280546107799061317f565b80156107c65780601f1061079b576101008083540402835291602001916107c6565b820191906000526020600020905b8154815290600101906020018083116107a957829003601f168201915b5050505050905090565b60006107db82611832565b6004600083815260200190815260200160002060009054906101000a900473ffffffffffffffffffffffffffffffffffffffff169050919050565b600061082182610c89565b90508073ffffffffffffffffffffffffffffffffffffffff168373ffffffffffffffffffffffffffffffffffffffff1603610891576040517f08c379a000000000000000000000000000000000000000000000000000000000815260040161088890613222565b60405180910390fd5b8073ffffffffffffffffffffffffffffffffffffffff166108b061187d565b73ffffffffffffffffffffffffffffffffffffffff1614806108df57506108de816108d961187d565b61161e565b5b61091e576040517f08c379a0000000000000000000000000000000000000000000000000000000008152600401610915906132b4565b60405180910390fd5b6109288383611885565b505050565b61093e61093861187d565b8261193e565b61097d576040517f08c379a000000000000000000000000000000000000000000000000000000000815260040161097490613346565b60405180910390fd5b6109888383836119d3565b505050565b6109a883838360405180602001604052806000815250611101565b505050565b60006109b960076117ba565b905090565b606060006109cc60076117ba565b90506000805b82811015610a77576000600b60006001846109ed9190613395565b815260200190815260200160002090503373ffffffffffffffffffffffffffffffffffffffff168160010160009054906101000a900473ffffffffffffffffffffffffffffffffffffffff1673ffffffffffffffffffffffffffffffffffffffff1603610a63578280610a5f906133c9565b9350505b508080610a6f906133c9565b9150506109d2565b5060008167ffffffffffffffff811115610a9457610a93612df9565b5b604051908082528060200260200182016040528015610acd57816020015b610aba612841565b815260200190600190039081610ab25790505b5090506000805b84811015610c7e576000600b6000600184610aef9190613395565b815260200190815260200160002090503373ffffffffffffffffffffffffffffffffffffffff168160010160009054906101000a900473ffffffffffffffffffffffffffffffffffffffff1673ffffffffffffffffffffffffffffffffffffffff1603610c6a57806040518060a0016040529081600082015481526020016001820160009054906101000a900473ffffffffffffffffffffffffffffffffffffffff1673ffffffffffffffffffffffffffffffffffffffff1673ffffffffffffffffffffffffffffffffffffffff1681526020016002820160009054906101000a900473ffffffffffffffffffffffffffffffffffffffff1673ffffffffffffffffffffffffffffffffffffffff1673ffffffffffffffffffffffffffffffffffffffff168152602001600382015481526020016004820160009054906101000a900460ff161515151581525050848481518110610c5057610c4f613411565b5b60200260200101819052508280610c66906133c9565b9350505b508080610c76906133c9565b915050610ad4565b508194505050505090565b600080610c9583611ccc565b9050600073ffffffffffffffffffffffffffffffffffffffff168173ffffffffffffffffffffffffffffffffffffffff1603610d06576040517f08c379a0000000000000000000000000000000000000000000000000000000008152600401610cfd9061348c565b60405180910390fd5b80915050919050565b6000600a54905090565b60008073ffffffffffffffffffffffffffffffffffffffff168273ffffffffffffffffffffffffffffffffffffffff1603610d89576040517f08c379a0000000000000000000000000000000000000000000000000000000008152600401610d809061351e565b60405180910390fd5b600360008373ffffffffffffffffffffffffffffffffffffffff1673ffffffffffffffffffffffffffffffffffffffff168152602001908152602001600020549050919050565b6000610ddc6007611d09565b6000610de860076117ba565b9050610df43382611d1f565b610dfe8185611d3d565b610e088184611daa565b8091505092915050565b606060018054610e219061317f565b80601f0160208091040260200160405190810160405280929190818152602001828054610e4d9061317f565b8015610e9a5780601f10610e6f57610100808354040283529160200191610e9a565b820191906000526020600020905b815481529060010190602001808311610e7d57829003601f168201915b5050505050905090565b6000600b60008381526020019081526020016000206003015490506000600b600084815260200190815260200160002060020160009054906101000a900473ffffffffffffffffffffffffffffffffffffffff169050348214610f3c576040517f08c379a0000000000000000000000000000000000000000000000000000000008152600401610f339061358a565b60405180910390fd5b6001600b600085815260200190815260200160002060040160006101000a81548160ff02191690831515021790555033600b600085815260200190815260200160002060020160006101000a81548173ffffffffffffffffffffffffffffffffffffffff021916908373ffffffffffffffffffffffffffffffffffffffff160217905550610fca6008611d09565b610fd53033856119d3565b610fdf3084610816565b600960009054906101000a900473ffffffffffffffffffffffffffffffffffffffff1673ffffffffffffffffffffffffffffffffffffffff166108fc600a549081150290604051600060405180830381858888f19350505050158015611049573d6000803e3d6000fd5b508073ffffffffffffffffffffffffffffffffffffffff166108fc349081150290604051600060405180830381858888f19350505050158015611090573d6000803e3d6000fd5b5033600b600085815260200190815260200160002060010160006101000a81548173ffffffffffffffffffffffffffffffffffffffff021916908373ffffffffffffffffffffffffffffffffffffffff160217905550505050565b6110fd6110f661187d565b8383611f6a565b5050565b61111261110c61187d565b8361193e565b611151576040517f08c379a000000000000000000000000000000000000000000000000000000000815260040161114890613346565b60405180910390fd5b61115d848484846120d6565b50505050565b600960009054906101000a900473ffffffffffffffffffffffffffffffffffffffff1673ffffffffffffffffffffffffffffffffffffffff163373ffffffffffffffffffffffffffffffffffffffff16146111f3576040517f08c379a00000000000000000000000000000000000000000000000000000000081526004016111ea906135f6565b60405180910390fd5b80600a8190555050565b606061120882611832565b60006006600084815260200190815260200160002080546112289061317f565b80601f01602080910402602001604051908101604052809291908181526020018280546112549061317f565b80156112a15780601f10611276576101008083540402835291602001916112a1565b820191906000526020600020905b81548152906001019060200180831161128457829003601f168201915b5050505050905060006112b2612132565b905060008151036112c757819250505061130a565b6000825111156112fc5780826040516020016112e4929190613652565b6040516020818303038152906040529250505061130a565b61130584612149565b925050505b919050565b6060600061131d60076117ba565b90506000805b828110156113ea576000600b600060018461133e9190613395565b81526020019081526020016000209050600960009054906101000a900473ffffffffffffffffffffffffffffffffffffffff1673ffffffffffffffffffffffffffffffffffffffff168160010160009054906101000a900473ffffffffffffffffffffffffffffffffffffffff1673ffffffffffffffffffffffffffffffffffffffff16036113d65782806113d2906133c9565b9350505b5080806113e2906133c9565b915050611323565b506000808267ffffffffffffffff81111561140857611407612df9565b5b60405190808252806020026020018201604052801561144157816020015b61142e612841565b8152602001906001900390816114265790505b50905060005b84811015611613576000600b60006001846114629190613395565b81526020019081526020016000209050600960009054906101000a900473ffffffffffffffffffffffffffffffffffffffff1673ffffffffffffffffffffffffffffffffffffffff168160010160009054906101000a900473ffffffffffffffffffffffffffffffffffffffff1673ffffffffffffffffffffffffffffffffffffffff16036115ff57806040518060a0016040529081600082015481526020016001820160009054906101000a900473ffffffffffffffffffffffffffffffffffffffff1673ffffffffffffffffffffffffffffffffffffffff1673ffffffffffffffffffffffffffffffffffffffff1681526020016002820160009054906101000a900473ffffffffffffffffffffffffffffffffffffffff1673ffffffffffffffffffffffffffffffffffffffff1673ffffffffffffffffffffffffffffffffffffffff168152602001600382015481526020016004820160009054906101000a900460ff1615151515815250508383815181106115e5576115e4613411565b5b602002602001018190525083806115fb906133c9565b9450505b50808061160b906133c9565b915050611447565b508094505050505090565b6000600560008473ffffffffffffffffffffffffffffffffffffffff1673ffffffffffffffffffffffffffffffffffffffff16815260200190815260200160002060008373ffffffffffffffffffffffffffffffffffffffff1673ffffffffffffffffffffffffffffffffffffffff16815260200190815260200160002060009054906101000a900460ff16905092915050565b6116ba612841565b600b60008381526020019081526020016000206040518060a0016040529081600082015481526020016001820160009054906101000a900473ffffffffffffffffffffffffffffffffffffffff1673ffffffffffffffffffffffffffffffffffffffff1673ffffffffffffffffffffffffffffffffffffffff1681526020016002820160009054906101000a900473ffffffffffffffffffffffffffffffffffffffff1673ffffffffffffffffffffffffffffffffffffffff1673ffffffffffffffffffffffffffffffffffffffff168152602001600382015481526020016004820160009054906101000a900460ff1615151515815250509050919050565b600081600001549050919050565b60007f01ffc9a7000000000000000000000000000000000000000000000000000000007bffffffffffffffffffffffffffffffffffffffffffffffffffffffff1916827bffffffffffffffffffffffffffffffffffffffffffffffffffffffff1916149050919050565b61183b816121b1565b61187a576040517f08c379a00000000000000000000000000000000000000000000000000000000081526004016118719061348c565b60405180910390fd5b50565b600033905090565b816004600083815260200190815260200160002060006101000a81548173ffffffffffffffffffffffffffffffffffffffff021916908373ffffffffffffffffffffffffffffffffffffffff160217905550808273ffffffffffffffffffffffffffffffffffffffff166118f883610c89565b73ffffffffffffffffffffffffffffffffffffffff167f8c5be1e5ebec7d5bd14f71427d1e84f3dd0314c0f7b2291e5b200ac8c7c3b92560405160405180910390a45050565b60008061194a83610c89565b90508073ffffffffffffffffffffffffffffffffffffffff168473ffffffffffffffffffffffffffffffffffffffff16148061198c575061198b818561161e565b5b806119ca57508373ffffffffffffffffffffffffffffffffffffffff166119b2846107d0565b73ffffffffffffffffffffffffffffffffffffffff16145b91505092915050565b8273ffffffffffffffffffffffffffffffffffffffff166119f382610c89565b73ffffffffffffffffffffffffffffffffffffffff1614611a49576040517f08c379a0000000000000000000000000000000000000000000000000000000008152600401611a40906136e8565b60405180910390fd5b600073ffffffffffffffffffffffffffffffffffffffff168273ffffffffffffffffffffffffffffffffffffffff1603611ab8576040517f08c379a0000000000000000000000000000000000000000000000000000000008152600401611aaf9061377a565b60405180910390fd5b611ac583838360016121f2565b8273ffffffffffffffffffffffffffffffffffffffff16611ae582610c89565b73ffffffffffffffffffffffffffffffffffffffff1614611b3b576040517f08c379a0000000000000000000000000000000000000000000000000000000008152600401611b32906136e8565b60405180910390fd5b6004600082815260200190815260200160002060006101000a81549073ffffffffffffffffffffffffffffffffffffffff02191690556001600360008573ffffffffffffffffffffffffffffffffffffffff1673ffffffffffffffffffffffffffffffffffffffff168152602001908152602001600020600082825403925050819055506001600360008473ffffffffffffffffffffffffffffffffffffffff1673ffffffffffffffffffffffffffffffffffffffff16815260200190815260200160002060008282540192505081905550816002600083815260200190815260200160002060006101000a81548173ffffffffffffffffffffffffffffffffffffffff021916908373ffffffffffffffffffffffffffffffffffffffff160217905550808273ffffffffffffffffffffffffffffffffffffffff168473ffffffffffffffffffffffffffffffffffffffff167fddf252ad1be2c89b69c2b068fc378daa952ba7f163c4a11628f55a4df523b3ef60405160405180910390a4611cc783838360016121f8565b505050565b60006002600083815260200190815260200160002060009054906101000a900473ffffffffffffffffffffffffffffffffffffffff169050919050565b6001816000016000828254019250508190555050565b611d398282604051806020016040528060008152506121fe565b5050565b611d46826121b1565b611d85576040517f08c379a0000000000000000000000000000000000000000000000000000000008152600401611d7c9061380c565b60405180910390fd5b80600660008481526020019081526020016000209081611da591906139d8565b505050565b600a543414611dee576040517f08c379a0000000000000000000000000000000000000000000000000000000008152600401611de590613b1c565b60405180910390fd5b6040518060a001604052808381526020013073ffffffffffffffffffffffffffffffffffffffff1681526020013373ffffffffffffffffffffffffffffffffffffffff16815260200182815260200160011515815250600b60008481526020019081526020016000206000820151816000015560208201518160010160006101000a81548173ffffffffffffffffffffffffffffffffffffffff021916908373ffffffffffffffffffffffffffffffffffffffff16021790555060408201518160020160006101000a81548173ffffffffffffffffffffffffffffffffffffffff021916908373ffffffffffffffffffffffffffffffffffffffff1602179055506060820151816003015560808201518160040160006101000a81548160ff021916908315150217905550905050611f273330846119d3565b817fc11fb15c2c775adbad5c52fc67fc7d85c2e67b9871879b7b4c0ac313cbbcd3913033846001604051611f5e9493929190613b3c565b60405180910390a25050565b8173ffffffffffffffffffffffffffffffffffffffff168373ffffffffffffffffffffffffffffffffffffffff1603611fd8576040517f08c379a0000000000000000000000000000000000000000000000000000000008152600401611fcf90613bcd565b60405180910390fd5b80600560008573ffffffffffffffffffffffffffffffffffffffff1673ffffffffffffffffffffffffffffffffffffffff16815260200190815260200160002060008473ffffffffffffffffffffffffffffffffffffffff1673ffffffffffffffffffffffffffffffffffffffff16815260200190815260200160002060006101000a81548160ff0219169083151502179055508173ffffffffffffffffffffffffffffffffffffffff168373ffffffffffffffffffffffffffffffffffffffff167f17307eab39ab6107e8899845ad3d59bd9653f200f220920489ca2b5937696c31836040516120c99190612a3e565b60405180910390a3505050565b6120e18484846119d3565b6120ed84848484612259565b61212c576040517f08c379a000000000000000000000000000000000000000000000000000000000815260040161212390613c5f565b60405180910390fd5b50505050565b606060405180602001604052806000815250905090565b606061215482611832565b600061215e612132565b9050600081511161217e57604051806020016040528060008152506121a9565b80612188846123e0565b604051602001612199929190613652565b6040516020818303038152906040525b915050919050565b60008073ffffffffffffffffffffffffffffffffffffffff166121d383611ccc565b73ffffffffffffffffffffffffffffffffffffffff1614159050919050565b50505050565b50505050565b61220883836124ae565b6122156000848484612259565b612254576040517f08c379a000000000000000000000000000000000000000000000000000000000815260040161224b90613c5f565b60405180910390fd5b505050565b600061227a8473ffffffffffffffffffffffffffffffffffffffff166126cb565b156123d3578373ffffffffffffffffffffffffffffffffffffffff1663150b7a026122a361187d565b8786866040518563ffffffff1660e01b81526004016122c59493929190613cd4565b6020604051808303816000875af192505050801561230157506040513d601f19601f820116820180604052508101906122fe9190613d35565b60015b612383573d8060008114612331576040519150601f19603f3d011682016040523d82523d6000602084013e612336565b606091505b50600081510361237b576040517f08c379a000000000000000000000000000000000000000000000000000000000815260040161237290613c5f565b60405180910390fd5b805181602001fd5b63150b7a0260e01b7bffffffffffffffffffffffffffffffffffffffffffffffffffffffff1916817bffffffffffffffffffffffffffffffffffffffffffffffffffffffff1916149150506123d8565b600190505b949350505050565b6060600060016123ef846126ee565b01905060008167ffffffffffffffff81111561240e5761240d612df9565b5b6040519080825280601f01601f1916602001820160405280156124405781602001600182028036833780820191505090505b509050600082602001820190505b6001156124a3578080600190039150507f3031323334353637383961626364656600000000000000000000000000000000600a86061a8153600a858161249757612496613d62565b5b0494506000850361244e575b819350505050919050565b600073ffffffffffffffffffffffffffffffffffffffff168273ffffffffffffffffffffffffffffffffffffffff160361251d576040517f08c379a000000000000000000000000000000000000000000000000000000000815260040161251490613ddd565b60405180910390fd5b612526816121b1565b15612566576040517f08c379a000000000000000000000000000000000000000000000000000000000815260040161255d90613e49565b60405180910390fd5b6125746000838360016121f2565b61257d816121b1565b156125bd576040517f08c379a00000000000000000000000000000000000000000000000000000000081526004016125b490613e49565b60405180910390fd5b6001600360008473ffffffffffffffffffffffffffffffffffffffff1673ffffffffffffffffffffffffffffffffffffffff16815260200190815260200160002060008282540192505081905550816002600083815260200190815260200160002060006101000a81548173ffffffffffffffffffffffffffffffffffffffff021916908373ffffffffffffffffffffffffffffffffffffffff160217905550808273ffffffffffffffffffffffffffffffffffffffff16600073ffffffffffffffffffffffffffffffffffffffff167fddf252ad1be2c89b69c2b068fc378daa952ba7f163c4a11628f55a4df523b3ef60405160405180910390a46126c76000838360016121f8565b5050565b6000808273ffffffffffffffffffffffffffffffffffffffff163b119050919050565b600080600090507a184f03e93ff9f4daa797ed6e38ed64bf6a1f010000000000000000831061274c577a184f03e93ff9f4daa797ed6e38ed64bf6a1f010000000000000000838161274257612741613d62565b5b0492506040810190505b6d04ee2d6d415b85acef81000000008310612789576d04ee2d6d415b85acef8100000000838161277f5761277e613d62565b5b0492506020810190505b662386f26fc1000083106127b857662386f26fc1000083816127ae576127ad613d62565b5b0492506010810190505b6305f5e10083106127e1576305f5e10083816127d7576127d6613d62565b5b0492506008810190505b61271083106128065761271083816127fc576127fb613d62565b5b0492506004810190505b60648310612829576064838161281f5761281e613d62565b5b0492506002810190505b600a8310612838576001810190505b80915050919050565b6040518060a0016040528060008152602001600073ffffffffffffffffffffffffffffffffffffffff168152602001600073ffffffffffffffffffffffffffffffffffffffff168152602001600081526020016000151581525090565b6000819050919050565b6128b18161289e565b82525050565b600073ffffffffffffffffffffffffffffffffffffffff82169050919050565b60006128e2826128b7565b9050919050565b6128f2816128d7565b82525050565b60008115159050919050565b61290d816128f8565b82525050565b60a08201600082015161292960008501826128a8565b50602082015161293c60208501826128e9565b50604082015161294f60408501826128e9565b50606082015161296260608501826128a8565b5060808201516129756080850182612904565b50505050565b600060a0820190506129906000830184612913565b92915050565b6000604051905090565b600080fd5b600080fd5b60007fffffffff0000000000000000000000000000000000000000000000000000000082169050919050565b6129df816129aa565b81146129ea57600080fd5b50565b6000813590506129fc816129d6565b92915050565b600060208284031215612a1857612a176129a0565b5b6000612a26848285016129ed565b91505092915050565b612a38816128f8565b82525050565b6000602082019050612a536000830184612a2f565b92915050565b600081519050919050565b600082825260208201905092915050565b60005b83811015612a93578082015181840152602081019050612a78565b60008484015250505050565b6000601f19601f8301169050919050565b6000612abb82612a59565b612ac58185612a64565b9350612ad5818560208601612a75565b612ade81612a9f565b840191505092915050565b60006020820190508181036000830152612b038184612ab0565b905092915050565b612b148161289e565b8114612b1f57600080fd5b50565b600081359050612b3181612b0b565b92915050565b600060208284031215612b4d57612b4c6129a0565b5b6000612b5b84828501612b22565b91505092915050565b6000612b6f826128b7565b9050919050565b612b7f81612b64565b82525050565b6000602082019050612b9a6000830184612b76565b92915050565b612ba981612b64565b8114612bb457600080fd5b50565b600081359050612bc681612ba0565b92915050565b60008060408385031215612be357612be26129a0565b5b6000612bf185828601612bb7565b9250506020612c0285828601612b22565b9150509250929050565b600080600060608486031215612c2557612c246129a0565b5b6000612c3386828701612bb7565b9350506020612c4486828701612bb7565b9250506040612c5586828701612b22565b9150509250925092565b612c688161289e565b82525050565b6000602082019050612c836000830184612c5f565b92915050565b600081519050919050565b600082825260208201905092915050565b6000819050602082019050919050565b60a082016000820151612ccb60008501826128a8565b506020820151612cde60208501826128e9565b506040820151612cf160408501826128e9565b506060820151612d0460608501826128a8565b506080820151612d176080850182612904565b50505050565b6000612d298383612cb5565b60a08301905092915050565b6000602082019050919050565b6000612d4d82612c89565b612d578185612c94565b9350612d6283612ca5565b8060005b83811015612d93578151612d7a8882612d1d565b9750612d8583612d35565b925050600181019050612d66565b5085935050505092915050565b60006020820190508181036000830152612dba8184612d42565b905092915050565b600060208284031215612dd857612dd76129a0565b5b6000612de684828501612bb7565b91505092915050565b600080fd5b600080fd5b7f4e487b7100000000000000000000000000000000000000000000000000000000600052604160045260246000fd5b612e3182612a9f565b810181811067ffffffffffffffff82111715612e5057612e4f612df9565b5b80604052505050565b6000612e63612996565b9050612e6f8282612e28565b919050565b600067ffffffffffffffff821115612e8f57612e8e612df9565b5b612e9882612a9f565b9050602081019050919050565b82818337600083830152505050565b6000612ec7612ec284612e74565b612e59565b905082815260208101848484011115612ee357612ee2612df4565b5b612eee848285612ea5565b509392505050565b600082601f830112612f0b57612f0a612def565b5b8135612f1b848260208601612eb4565b91505092915050565b60008060408385031215612f3b57612f3a6129a0565b5b600083013567ffffffffffffffff811115612f5957612f586129a5565b5b612f6585828601612ef6565b9250506020612f7685828601612b22565b9150509250929050565b612f89816128f8565b8114612f9457600080fd5b50565b600081359050612fa681612f80565b92915050565b60008060408385031215612fc357612fc26129a0565b5b6000612fd185828601612bb7565b9250506020612fe285828601612f97565b9150509250929050565b600067ffffffffffffffff82111561300757613006612df9565b5b61301082612a9f565b9050602081019050919050565b600061303061302b84612fec565b612e59565b90508281526020810184848401111561304c5761304b612df4565b5b613057848285612ea5565b509392505050565b600082601f83011261307457613073612def565b5b813561308484826020860161301d565b91505092915050565b600080600080608085870312156130a7576130a66129a0565b5b60006130b587828801612bb7565b94505060206130c687828801612bb7565b93505060406130d787828801612b22565b925050606085013567ffffffffffffffff8111156130f8576130f76129a5565b5b6131048782880161305f565b91505092959194509250565b60008060408385031215613127576131266129a0565b5b600061313585828601612bb7565b925050602061314685828601612bb7565b9150509250929050565b7f4e487b7100000000000000000000000000000000000000000000000000000000600052602260045260246000fd5b6000600282049050600182168061319757607f821691505b6020821081036131aa576131a9613150565b5b50919050565b7f4552433732313a20617070726f76616c20746f2063757272656e74206f776e6560008201527f7200000000000000000000000000000000000000000000000000000000000000602082015250565b600061320c602183612a64565b9150613217826131b0565b604082019050919050565b6000602082019050818103600083015261323b816131ff565b9050919050565b7f4552433732313a20617070726f76652063616c6c6572206973206e6f7420746f60008201527f6b656e206f776e6572206f7220617070726f76656420666f7220616c6c000000602082015250565b600061329e603d83612a64565b91506132a982613242565b604082019050919050565b600060208201905081810360008301526132cd81613291565b9050919050565b7f4552433732313a2063616c6c6572206973206e6f7420746f6b656e206f776e6560008201527f72206f7220617070726f76656400000000000000000000000000000000000000602082015250565b6000613330602d83612a64565b915061333b826132d4565b604082019050919050565b6000602082019050818103600083015261335f81613323565b9050919050565b7f4e487b7100000000000000000000000000000000000000000000000000000000600052601160045260246000fd5b60006133a08261289e565b91506133ab8361289e565b92508282019050808211156133c3576133c2613366565b5b92915050565b60006133d48261289e565b91507fffffffffffffffffffffffffffffffffffffffffffffffffffffffffffffffff820361340657613405613366565b5b600182019050919050565b7f4e487b7100000000000000000000000000000000000000000000000000000000600052603260045260246000fd5b7f4552433732313a20696e76616c696420746f6b656e2049440000000000000000600082015250565b6000613476601883612a64565b915061348182613440565b602082019050919050565b600060208201905081810360008301526134a581613469565b9050919050565b7f4552433732313a2061646472657373207a65726f206973206e6f74206120766160008201527f6c6964206f776e65720000000000000000000000000000000000000000000000602082015250565b6000613508602983612a64565b9150613513826134ac565b604082019050919050565b60006020820190508181036000830152613537816134fb565b9050919050565b7f706c65617365207375626d697420636f72726563742070726963652100000000600082015250565b6000613574601c83612a64565b915061357f8261353e565b602082019050919050565b600060208201905081810360008301526135a381613567565b9050919050565b7f6f6e6c79206f776e657220616c6c6f7765640000000000000000000000000000600082015250565b60006135e0601283612a64565b91506135eb826135aa565b602082019050919050565b6000602082019050818103600083015261360f816135d3565b9050919050565b600081905092915050565b600061362c82612a59565b6136368185613616565b9350613646818560208601612a75565b80840191505092915050565b600061365e8285613621565b915061366a8284613621565b91508190509392505050565b7f4552433732313a207472616e736665722066726f6d20696e636f72726563742060008201527f6f776e6572000000000000000000000000000000000000000000000000000000602082015250565b60006136d2602583612a64565b91506136dd82613676565b604082019050919050565b60006020820190508181036000830152613701816136c5565b9050919050565b7f4552433732313a207472616e7366657220746f20746865207a65726f2061646460008201527f7265737300000000000000000000000000000000000000000000000000000000602082015250565b6000613764602483612a64565b915061376f82613708565b604082019050919050565b6000602082019050818103600083015261379381613757565b9050919050565b7f45524337323155524953746f726167653a2055524920736574206f66206e6f6e60008201527f6578697374656e7420746f6b656e000000000000000000000000000000000000602082015250565b60006137f6602e83612a64565b91506138018261379a565b604082019050919050565b60006020820190508181036000830152613825816137e9565b9050919050565b60008190508160005260206000209050919050565b60006020601f8301049050919050565b600082821b905092915050565b60006008830261388e7fffffffffffffffffffffffffffffffffffffffffffffffffffffffffffffffff82613851565b6138988683613851565b95508019841693508086168417925050509392505050565b6000819050919050565b60006138d56138d06138cb8461289e565b6138b0565b61289e565b9050919050565b6000819050919050565b6138ef836138ba565b6139036138fb826138dc565b84845461385e565b825550505050565b600090565b61391861390b565b6139238184846138e6565b505050565b5b818110156139475761393c600082613910565b600181019050613929565b5050565b601f82111561398c5761395d8161382c565b61396684613841565b81016020851015613975578190505b61398961398185613841565b830182613928565b50505b505050565b600082821c905092915050565b60006139af60001984600802613991565b1980831691505092915050565b60006139c8838361399e565b9150826002028217905092915050565b6139e182612a59565b67ffffffffffffffff8111156139fa576139f9612df9565b5b613a04825461317f565b613a0f82828561394b565b600060209050601f831160018114613a425760008415613a30578287015190505b613a3a85826139bc565b865550613aa2565b601f198416613a508661382c565b60005b82811015613a7857848901518255600182019150602085019450602081019050613a53565b86831015613a955784890151613a91601f89168261399e565b8355505b6001600288020188555050505b505050505050565b7f4d73672076616c75652073686f756c6420657175616c204c697374205072696360008201527f6520736574000000000000000000000000000000000000000000000000000000602082015250565b6000613b06602583612a64565b9150613b1182613aaa565b604082019050919050565b60006020820190508181036000830152613b3581613af9565b9050919050565b6000608082019050613b516000830187612b76565b613b5e6020830186612b76565b613b6b6040830185612c5f565b613b786060830184612a2f565b95945050505050565b7f4552433732313a20617070726f766520746f2063616c6c657200000000000000600082015250565b6000613bb7601983612a64565b9150613bc282613b81565b602082019050919050565b60006020820190508181036000830152613be681613baa565b9050919050565b7f4552433732313a207472616e7366657220746f206e6f6e20455243373231526560008201527f63656976657220696d706c656d656e7465720000000000000000000000000000602082015250565b6000613c49603283612a64565b9150613c5482613bed565b604082019050919050565b60006020820190508181036000830152613c7881613c3c565b9050919050565b600081519050919050565b600082825260208201905092915050565b6000613ca682613c7f565b613cb08185613c8a565b9350613cc0818560208601612a75565b613cc981612a9f565b840191505092915050565b6000608082019050613ce96000830187612b76565b613cf66020830186612b76565b613d036040830185612c5f565b8181036060830152613d158184613c9b565b905095945050505050565b600081519050613d2f816129d6565b92915050565b600060208284031215613d4b57613d4a6129a0565b5b6000613d5984828501613d20565b91505092915050565b7f4e487b7100000000000000000000000000000000000000000000000000000000600052601260045260246000fd5b7f4552433732313a206d696e7420746f20746865207a65726f2061646472657373600082015250565b6000613dc7602083612a64565b9150613dd282613d91565b602082019050919050565b60006020820190508181036000830152613df681613dba565b9050919050565b7f4552433732313a20746f6b656e20616c7265616479206d696e74656400000000600082015250565b6000613e33601c83612a64565b9150613e3e82613dfd565b602082019050919050565b60006020820190508181036000830152613e6281613e26565b905091905056fea2646970667358221220d7f672a164d3ddae40607d9bb5aa868ad07743577e089170bf9427b71e04e29364736f6c63430008120033",
  "linkReferences": {},
  "deployedLinkReferences": {}
}